{
  "_format": "hh-sol-artifact-1",
  "contractName": "EthereumConfig",
  "sourceName": "@fhevm/solidity/config/ZamaConfig.sol",
  "abi": [
    {
      "inputs": [],
      "stateMutability": "nonpayable",
      "type": "constructor"
    },
    {
      "inputs": [],
      "name": "protocolId",
      "outputs": [
        {
          "internalType": "uint256",
          "name": "",
          "type": "uint256"
        }
      ],
      "stateMutability": "pure",
      "type": "function"
    }
  ],
  "bytecode": "0x6080604052346100f65760606100136100fb565b6000918183809352826020820152826040820152015260606100336100fb565b828152826020820152826040820152015260018060a01b03197f9e7b61f58c47dc699ac88507c4f5bb9f121c03808c5676a8078fe583e46497008181541690557f9e7b61f58c47dc699ac88507c4f5bb9f121c03808c5676a8078fe583e46497018181541690557f9e7b61f58c47dc699ac88507c4f5bb9f121c03808c5676a8078fe583e46497028181541690557f9e7b61f58c47dc699ac88507c4f5bb9f121c03808c5676a8078fe583e4649703908154169055604051607990816101318239f35b600080fd5b60405190608082016001600160401b0381118382101761011a57604052565b634e487b7160e01b600052604160045260246000fdfe6080806040526004361015601257600080fd5b600090813560e01c63da1f12ab14602857600080fd5b34603f5781600319360112603f5780600160209252f35b5080fdfea2646970667358221220b628677ebac8c91bb508e8b93082857811b16c0eb97ece2c2bd8f3ef6088e69464736f6c63430008180033",
  "linkReferences": {},
  "deployedLinkReferences": {}
}