{
  "_format": "hh-sol-artifact-1",
  "contractName": "SecureReport",
  "sourceName": "contracts/SecureReport.sol",
  "abi": [
    {
      "inputs": [],
      "stateMutability": "nonpayable",
      "type": "constructor"
    },
    {
      "anonymous": false,
      "inputs": [
        {
          "indexed": true,
          "internalType": "address",
          "name": "orgAddress",
          "type": "address"
        }
      ],
      "name": "OrganizationDeactivated",
      "type": "event"
    },
    {
      "anonymous": false,
      "inputs": [
        {
          "indexed": true,
          "internalType": "address",
          "name": "orgAddress",
          "type": "address"
        },
        {
          "indexed": false,
          "internalType": "string",
          "name": "name",
          "type": "string"
        }
      ],
      "name": "OrganizationRegistered",
      "type": "event"
    },
    {
      "anonymous": false,
      "inputs": [
        {
          "indexed": true,
          "internalType": "address",
          "name": "orgAddress",
          "type": "address"
        }
      ],
      "name": "OrganizationVerified",
      "type": "event"
    },
    {
      "anonymous": false,
      "inputs": [
        {
          "indexed": true,
          "internalType": "uint256",
          "name": "reportId",
          "type": "uint256"
        }
      ],
      "name": "ReportClosed",
      "type": "event"
    },
    {
      "anonymous": false,
      "inputs": [
        {
          "indexed": true,
          "internalType": "uint256",
          "name": "reportId",
          "type": "uint256"
        },
        {
          "indexed": false,
          "internalType": "enum SecureReport.Status",
          "name": "newStatus",
          "type": "uint8"
        },
        {
          "indexed": false,
          "internalType": "string",
          "name": "notes",
          "type": "string"
        }
      ],
      "name": "ReportStatusUpdated",
      "type": "event"
    },
    {
      "anonymous": false,
      "inputs": [
        {
          "indexed": true,
          "internalType": "uint256",
          "name": "reportId",
          "type": "uint256"
        },
        {
          "indexed": true,
          "internalType": "address",
          "name": "organization",
          "type": "address"
        },
        {
          "indexed": false,
          "internalType": "enum SecureReport.Category",
          "name": "category",
          "type": "uint8"
        },
        {
          "indexed": false,
          "internalType": "enum SecureReport.Severity",
          "name": "severity",
          "type": "uint8"
        }
      ],
      "name": "ReportSubmitted",
      "type": "event"
    },
    {
      "inputs": [],
      "name": "admin",
      "outputs": [
        {
          "internalType": "address",
          "name": "",
          "type": "address"
        }
      ],
      "stateMutability": "view",
      "type": "function"
    },
    {
      "inputs": [
        {
          "internalType": "uint256",
          "name": "reportId",
          "type": "uint256"
        }
      ],
      "name": "closeReport",
      "outputs": [],
      "stateMutability": "nonpayable",
      "type": "function"
    },
    {
      "inputs": [
        {
          "internalType": "address",
          "name": "orgAddress",
          "type": "address"
        }
      ],
      "name": "deactivateOrganization",
      "outputs": [],
      "stateMutability": "nonpayable",
      "type": "function"
    },
    {
      "inputs": [
        {
          "internalType": "bytes32",
          "name": "accessCode",
          "type": "bytes32"
        }
      ],
      "name": "getEncryptedFeedback",
      "outputs": [
        {
          "internalType": "bytes32",
          "name": "feedback",
          "type": "bytes32"
        }
      ],
      "stateMutability": "view",
      "type": "function"
    },
    {
      "inputs": [
        {
          "internalType": "uint256",
          "name": "reportId",
          "type": "uint256"
        }
      ],
      "name": "getEncryptedReport",
      "outputs": [
        {
          "internalType": "bytes32",
          "name": "content",
          "type": "bytes32"
        }
      ],
      "stateMutability": "view",
      "type": "function"
    },
    {
      "inputs": [
        {
          "internalType": "address",
          "name": "orgAddress",
          "type": "address"
        }
      ],
      "name": "getOrganization",
      "outputs": [
        {
          "components": [
            {
              "internalType": "address",
              "name": "orgAddress",
              "type": "address"
            },
            {
              "internalType": "string",
              "name": "name",
              "type": "string"
            },
            {
              "internalType": "string",
              "name": "description",
              "type": "string"
            },
            {
              "internalType": "bool",
              "name": "isVerified",
              "type": "bool"
            },
            {
              "internalType": "bool",
              "name": "isActive",
              "type": "bool"
            },
            {
              "internalType": "uint256",
              "name": "registeredAt",
              "type": "uint256"
            },
            {
              "internalType": "uint256",
              "name": "reportsReceived",
              "type": "uint256"
            },
            {
              "internalType": "uint256",
              "name": "reportsResolved",
              "type": "uint256"
            }
          ],
          "internalType": "struct SecureReport.Organization",
          "name": "",
          "type": "tuple"
        }
      ],
      "stateMutability": "view",
      "type": "function"
    },
    {
      "inputs": [
        {
          "internalType": "address",
          "name": "orgAddress",
          "type": "address"
        }
      ],
      "name": "getOrganizationReports",
      "outputs": [
        {
          "internalType": "uint256[]",
          "name": "",
          "type": "uint256[]"
        }
      ],
      "stateMutability": "view",
      "type": "function"
    },
    {
      "inputs": [
        {
          "internalType": "bytes32",
          "name": "accessCode",
          "type": "bytes32"
        }
      ],
      "name": "getReportByAccessCode",
      "outputs": [
        {
          "internalType": "uint256",
          "name": "id",
          "type": "uint256"
        },
        {
          "internalType": "enum SecureReport.Category",
          "name": "category",
          "type": "uint8"
        },
        {
          "internalType": "enum SecureReport.Severity",
          "name": "severity",
          "type": "uint8"
        },
        {
          "internalType": "enum SecureReport.Status",
          "name": "status",
          "type": "uint8"
        },
        {
          "internalType": "uint256",
          "name": "submittedAt",
          "type": "uint256"
        },
        {
          "internalType": "uint256",
          "name": "updatedAt",
          "type": "uint256"
        }
      ],
      "stateMutability": "view",
      "type": "function"
    },
    {
      "inputs": [
        {
          "internalType": "uint256",
          "name": "reportId",
          "type": "uint256"
        }
      ],
      "name": "getReportMetadata",
      "outputs": [
        {
          "internalType": "enum SecureReport.Category",
          "name": "category",
          "type": "uint8"
        },
        {
          "internalType": "enum SecureReport.Severity",
          "name": "severity",
          "type": "uint8"
        },
        {
          "internalType": "enum SecureReport.Status",
          "name": "status",
          "type": "uint8"
        },
        {
          "internalType": "uint256",
          "name": "submittedAt",
          "type": "uint256"
        },
        {
          "internalType": "uint256",
          "name": "updatedAt",
          "type": "uint256"
        }
      ],
      "stateMutability": "view",
      "type": "function"
    },
    {
      "inputs": [
        {
          "internalType": "address",
          "name": "",
          "type": "address"
        }
      ],
      "name": "organizations",
      "outputs": [
        {
          "internalType": "address",
          "name": "orgAddress",
          "type": "address"
        },
        {
          "internalType": "string",
          "name": "name",
          "type": "string"
        },
        {
          "internalType": "string",
          "name": "description",
          "type": "string"
        },
        {
          "internalType": "bool",
          "name": "isVerified",
          "type": "bool"
        },
        {
          "internalType": "bool",
          "name": "isActive",
          "type": "bool"
        },
        {
          "internalType": "uint256",
          "name": "registeredAt",
          "type": "uint256"
        },
        {
          "internalType": "uint256",
          "name": "reportsReceived",
          "type": "uint256"
        },
        {
          "internalType": "uint256",
          "name": "reportsResolved",
          "type": "uint256"
        }
      ],
      "stateMutability": "view",
      "type": "function"
    },
    {
      "inputs": [],
      "name": "protocolId",
      "outputs": [
        {
          "internalType": "uint256",
          "name": "",
          "type": "uint256"
        }
      ],
      "stateMutability": "pure",
      "type": "function"
    },
    {
      "inputs": [
        {
          "internalType": "string",
          "name": "name",
          "type": "string"
        },
        {
          "internalType": "string",
          "name": "description",
          "type": "string"
        }
      ],
      "name": "registerOrganization",
      "outputs": [],
      "stateMutability": "nonpayable",
      "type": "function"
    },
    {
      "inputs": [],
      "name": "reportCounter",
      "outputs": [
        {
          "internalType": "uint256",
          "name": "",
          "type": "uint256"
        }
      ],
      "stateMutability": "view",
      "type": "function"
    },
    {
      "inputs": [
        {
          "internalType": "uint256",
          "name": "",
          "type": "uint256"
        }
      ],
      "name": "reports",
      "outputs": [
        {
          "internalType": "uint256",
          "name": "id",
          "type": "uint256"
        },
        {
          "internalType": "address",
          "name": "organization",
          "type": "address"
        },
        {
          "internalType": "address",
          "name": "reporter",
          "type": "address"
        },
        {
          "internalType": "enum SecureReport.Category",
          "name": "category",
          "type": "uint8"
        },
        {
          "internalType": "enum SecureReport.Severity",
          "name": "severity",
          "type": "uint8"
        },
        {
          "internalType": "enum SecureReport.Status",
          "name": "status",
          "type": "uint8"
        },
        {
          "internalType": "uint256",
          "name": "submittedAt",
          "type": "uint256"
        },
        {
          "internalType": "uint256",
          "name": "updatedAt",
          "type": "uint256"
        },
        {
          "internalType": "bytes32",
          "name": "accessCode",
          "type": "bytes32"
        },
        {
          "internalType": "bool",
          "name": "isActive",
          "type": "bool"
        },
        {
          "internalType": "euint32",
          "name": "encryptedContent",
          "type": "bytes32"
        },
        {
          "internalType": "euint32",
          "name": "encryptedFeedback",
          "type": "bytes32"
        }
      ],
      "stateMutability": "view",
      "type": "function"
    },
    {
      "inputs": [
        {
          "internalType": "address",
          "name": "organization",
          "type": "address"
        },
        {
          "internalType": "enum SecureReport.Category",
          "name": "category",
          "type": "uint8"
        },
        {
          "internalType": "enum SecureReport.Severity",
          "name": "severity",
          "type": "uint8"
        },
        {
          "internalType": "externalEuint32",
          "name": "encryptedContent",
          "type": "bytes32"
        },
        {
          "internalType": "bytes",
          "name": "inputProof",
          "type": "bytes"
        },
        {
          "internalType": "bytes32",
          "name": "accessCode",
          "type": "bytes32"
        }
      ],
      "name": "submitReport",
      "outputs": [
        {
          "internalType": "uint256",
          "name": "",
          "type": "uint256"
        }
      ],
      "stateMutability": "nonpayable",
      "type": "function"
    },
    {
      "inputs": [
        {
          "internalType": "address",
          "name": "newAdmin",
          "type": "address"
        }
      ],
      "name": "transferAdmin",
      "outputs": [],
      "stateMutability": "nonpayable",
      "type": "function"
    },
    {
      "inputs": [
        {
          "internalType": "uint256",
          "name": "reportId",
          "type": "uint256"
        },
        {
          "internalType": "enum SecureReport.Status",
          "name": "newStatus",
          "type": "uint8"
        },
        {
          "internalType": "externalEuint32",
          "name": "encryptedFeedback",
          "type": "bytes32"
        },
        {
          "internalType": "bytes",
          "name": "inputProof",
          "type": "bytes"
        }
      ],
      "name": "updateReportStatus",
      "outputs": [],
      "stateMutability": "nonpayable",
      "type": "function"
    },
    {
      "inputs": [
        {
          "internalType": "address",
          "name": "orgAddress",
          "type": "address"
        }
      ],
      "name": "verifyOrganization",
      "outputs": [],
      "stateMutability": "nonpayable",
      "type": "function"
    }
  ],
  "bytecode": "0x608060405234610165576000606061001561016a565b828152826020820152826040820152015261002e61016a565b606073687820221192c5b662b25367f70076a37bc79b6c9182815273848b0066793bcc60346da1f49049357399b8d59580602083015273a02cda4ca3a71d7c46997716f4283aa851c2881291826040820152731364cbbf2cdf5032c47d8226a6f6fbd2afcdacac938491015260018060a01b0319937f9e7b61f58c47dc699ac88507c4f5bb9f121c03808c5676a8078fe583e464970090858254161790557f9e7b61f58c47dc699ac88507c4f5bb9f121c03808c5676a8078fe583e464970190848254161790557f9e7b61f58c47dc699ac88507c4f5bb9f121c03808c5676a8078fe583e464970290838254161790557f9e7b61f58c47dc699ac88507c4f5bb9f121c03808c5676a8078fe583e46497039082825416179055339060045416176004556001600355604051611a0890816101a08239f35b600080fd5b60405190608082016001600160401b0381118382101761018957604052565b634e487b7160e01b600052604160045260246000fdfe6080604052600436101561001257600080fd5b60e0600035811c9081631502a8a214611236578163247a50d814610dc55781632e8873a814610c30578163383f4f1014610be85781633dd1799e14610b45578163592dd632146108d55781635a1f74061461081957816365307f7d1461077e5781636530db98146106a55781636d567acd146105cc57816375829def1461054a5781638ce4321d146104a6578163b1df47e514610370578163b9bc38f214610352578163c942adf71461027f578163d2c30a6d1461013057508063da1f12ab146101135763f851a440146100e557600080fd5b3461010e57600036600319011261010e576004546040516001600160a01b039091168152602090f35b600080fd5b3461010e57600036600319011261010e5760206040516127118152f35b3461010e5760208060031936011261010e5761014a6112cb565b9160008160405161015a816112e1565b828152606085820152606060408201528260608201528260808201528260a08201528260c0820152015260018060a01b03809316600052600182526040600020604051926101a7846112e1565b8482541684526101b96001830161143e565b928185019384526101cc6002840161143e565b9260408601938452600381015494606087019560ff81161515875260ff608089019160081c161515815261025a60048401549260a08a01938452600660058601549560c08c01968752015496868b019788526040519b8c9b828d525116908b01525196610247610100988960408d01526101208c01906114e3565b90518a8203601f190160608c01526114e3565b96511515608089015251151560a08801525160c0870152519085015251908301520390f35b3461010e57602036600319011261010e5761018090600435600052600060205260406000209081549160018060a01b03806001830154169260028301549060038401549060048501549161032e60058701549460ff60068901541696600860078a0154990154996040519b8c5260208c0152811660408b015261030b60608b0160ff8360a01c166113c7565b61031e60808b0160ff8360a81c166113ea565b60ff60a08b019160b01c166113f7565b60c08801528601526101008501521515610120840152610140830152610160820152f35b3461010e57600036600319011261010e576020600354604051908152f35b3461010e5760208060031936011261010e576001600160a01b0390816103946112cb565b16806000526001906001835260ff936103b760ff6003604060002001541661174c565b600354906103c4826117b0565b9560009360005b84811061044b5750505050506103e0816117b0565b9360005b82811061042857505050604051918083018184528451809152816040850195019160005b8281106104155785870386f35b8351875295810195928101928401610408565b9283610436829795846117e2565b5161044182876117e2565b52019492946103e4565b95868199976000526000895260406000208484878584015416149182610498575b505061047c575b019795976103cb565b95808761048c610492938b6117e2565b526116e5565b95610473565b60060154169050848c61046c565b3461010e57602036600319011261010e576004353360005260016020526104e060036040600020015460ff8116908161053c575b506115c6565b6104ed6003548210611612565b80600052600060205261050a60ff60066040600020015416611656565b60005260006020526020600760406000206105323360018060a01b0360018401541614611699565b0154604051908152f35b60ff915060081c16836104da565b3461010e57602036600319011261010e576105636112cb565b600454906001600160a01b039061057d3383851614611523565b16908115610595576001600160a01b03191617600455005b60405162461bcd60e51b815260206004820152600f60248201526e496e76616c6964206164647265737360881b6044820152606490fd5b3461010e57602036600319011261010e576105e56112cb565b6004546001600160a01b0391906105ff9083163314611523565b1680600052600160205260ff60036040600020015460081c1615610660578060005260016020526003604060002001600160ff198254161790557f549d40a34f01c931095d217eace0f976fc10b35869308c9333491bb6a96a67be600080a2005b60405162461bcd60e51b815260206004820152601b60248201527f4f7267616e697a6174696f6e206e6f74207265676973746572656400000000006044820152606490fd5b3461010e57602036600319011261010e576004353360005260016020526106de60036040600020015460ff8116908161053c57506115c6565b6106eb6003548210611612565b80600052600060205261070860ff60066040600020015416611656565b6000818152602081905260409020600181015461072f906001600160a01b03163314611699565b60068101805460ff1916905560028101805460ff60b01b1916600160b21b179055426004909101557fb69d06892e9de87fa62e67e31ba1e464015f330f90e9e2b8ef181b67d9318858600080a2005b3461010e57602036600319011261010e5760043560005260026020526040600020546107ab81151561170a565b600052600060205260c0604060002080549060028101549061080d60046003830154920154926040519485526107ea6020860160ff8360a01c166113c7565b6107fd6040860160ff8360a81c166113ea565b60ff606086019160b01c166113f7565b608083015260a0820152f35b3461010e57602036600319011261010e576001600160a01b038061083b6112cb565b1660005260016020526040600020908154169061085a6001820161143e565b926108676002830161143e565b90600383015492600481015460ff6108ae60066005850154940154956108a06040519a8b9a610100908c528060208d01528b01906114e3565b9089820360408b01526114e3565b958181161515606089015260081c161515608087015260a086015260c08501528301520390f35b3461010e5760c036600319011261010e576108ee6112cb565b602435600781101561010e57604435600481101561010e5760843567ffffffffffffffff811161010e57610926903690600401611399565b9260a4359260018060a01b03861693846000526020966001885261095460ff6003604060002001541661174c565b856000526001885261097360ff60036040600020015460081c1661157a565b8115610b09578160005260028852604060002054610ac45760035496879561099a876116e5565b6003558660005260008a5260406000209187835560018301896bffffffffffffffffffffffff60a01b82541617905560028301805462ffffff60a01b1933169068ffffffffffffffffff60b81b161760ff60a01b8960a01b161760ff60a81b8860a81b161790554260038401554260048401558460058401556006830160ff1981541660011790553690610a2d92611334565b610a399060643561180c565b91610a44908361194b565b610a4e308361194b565b600701556000526002865282604060002055836000526001865260406000206005018054610a7b906116e5565b90556040519182610a8b916113c7565b858201610a97916113ea565b60407f1658a817ef766f0fdb16bd379bc0583203a59b1afef239f732fbe8160b3fa82091a3604051908152f35b60405162461bcd60e51b815260048101899052601860248201527f41636365737320636f646520616c7265616479207573656400000000000000006044820152606490fd5b60405162461bcd60e51b81526004810189905260146024820152731058d8d95cdcc818dbd919481c995c5d5a5c995960621b6044820152606490fd5b3461010e57602036600319011261010e57600435610b666003548210611612565b806000526000602052610b8360ff60066040600020015416611656565b600052600060205260a060406000206002810154906004600382015491015490610bdc60405193610bb98560ff83891c166113c7565b610bcc6020860160ff8360a81c166113ea565b60ff604086019160b01c166113f7565b60608301526080820152f35b3461010e57602036600319011261010e576004356000526002602052604060002054610c1581151561170a565b60005260006020526020600860406000200154604051908152f35b3461010e57608036600319011261010e57600435602435600581101561010e5760643567ffffffffffffffff811161010e577f677b92301af35e3ed233f99833cb236ad46e5929454d5b938c32d357ebea6dc5916008610c966060933690600401611399565b9190336000526001602052610cbd60036040600020015460ff81169081610db857506115c6565b610cca6003548810611612565b866000526000602052610ce760ff60066040600020015416611656565b866000526000602052610d52604060002091610d49610d4160018060a01b0392610d18338560018901541614611699565b60028601805460ff60b01b191660b08b901b60ff60b01b16178155426004880155973691611334565b60443561180c565b9454168461194b565b610d5c308461194b565b0155600381148015610dae575b610d8c575b610d7b60405180926113f7565b6040602082015260006040820152a2005b3360005260016020526006604060002001610da781546116e5565b9055610d6e565b5060048114610d69565b60ff9150841c16896104da565b3461010e57604036600319011261010e5760043567ffffffffffffffff811161010e57610df690369060040161137b565b9060243567ffffffffffffffff811161010e57610e1790369060040161137b565b908251156111fa5733600052600160205260ff60036040600020015460081c166111b557604051610e47816112e1565b3381526020810192848452604082015260016060820152600160808201524260a0820152600060c082015260008282015233600052600160205260406000209260018060a01b038251166bffffffffffffffffffffffff60a01b8554161784555180519067ffffffffffffffff82116110cf578190610ec96001870154611404565b601f8111611162575b50602090601f83116001146110f0576000926110e5575b50508160011b916000199060031b1c19161760018401555b604081015180519067ffffffffffffffff82116110cf57610f256002860154611404565b601f8111611088575b50602090601f83116001146110145760069493929160009183611009575b50508160011b916000199060031b1c19161760028501555b6003840160608201511515815460ff61ff006080860151151560081b1692169061ffff19161717905560a0810151600485015560c0810151600585015501519101557f783e607e94efcb9adce3489c806008ddc378d784ae22a1f801458720054325a26040516020815280610fde339460208301906114e3565b0390a2337f549d40a34f01c931095d217eace0f976fc10b35869308c9333491bb6a96a67be600080a2005b015190508780610f4c565b906002860160005260206000209160005b601f198516811061107057509183916001936006979695601f19811610611057575b505050811b016002850155610f64565b015160001960f88460031b161c19169055878080611047565b91926020600181928685015181550194019201611025565b600286016000526020600020601f840160051c8101602085106110c8575b601f830160051c820181106110bc575050610f2e565b600081556001016110a6565b50806110a6565b634e487b7160e01b600052604160045260246000fd5b015190508680610ee9565b9250600186016000526020600020906000935b601f1984168510611147576001945083601f1981161061112e575b505050811b016001840155610f01565b015160001960f88460031b161c1916905586808061111e565b81810151835560209485019460019093019290910190611103565b909150600186016000526020600020601f840160051c8101602085106111ae575b90849392915b601f830160051c8201811061119f575050610ed2565b60008155859450600101611189565b5080611183565b60405162461bcd60e51b815260206004820152601f60248201527f4f7267616e697a6174696f6e20616c72656164792072656769737465726564006044820152606490fd5b60405162461bcd60e51b81526020600482015260146024820152734e616d652063616e6e6f7420626520656d70747960601b6044820152606490fd5b3461010e57602036600319011261010e5761124f6112cb565b6004546001600160a01b0391906112699083163314611523565b1680600052600160205261128a60ff60036040600020015460081c1661157a565b806000526001602052600360406000200161ff001981541690557fc90df498d0538be4aa86812c573910759ce508c68778eb31883490c274f508b0600080a2005b600435906001600160a01b038216820361010e57565b610100810190811067ffffffffffffffff8211176110cf57604052565b67ffffffffffffffff81116110cf57604052565b90601f8019910116810190811067ffffffffffffffff8211176110cf57604052565b92919267ffffffffffffffff82116110cf576040519161135e601f8201601f191660200184611312565b82948184528183011161010e578281602093846000960137010152565b9080601f8301121561010e5781602061139693359101611334565b90565b9181601f8401121561010e5782359167ffffffffffffffff831161010e576020838186019501011161010e57565b9060078210156113d45752565b634e487b7160e01b600052602160045260246000fd5b9060048210156113d45752565b9060058210156113d45752565b90600182811c92168015611434575b602083101461141e57565b634e487b7160e01b600052602260045260246000fd5b91607f1691611413565b9060405191826000825461145181611404565b908184526020946001916001811690816000146114c15750600114611482575b50505061148092500383611312565b565b600090815285812095935091905b8183106114a95750506114809350820101388080611471565b85548884018501529485019487945091830191611490565b9250505061148094925060ff191682840152151560051b820101388080611471565b919082519283825260005b84811061150f575050826000602080949584010152601f8019910116010190565b6020818301810151848301820152016114ee565b1561152a57565b60405162461bcd60e51b815260206004820152602260248201527f4f6e6c792061646d696e2063616e20706572666f726d2074686973206163746960448201526137b760f11b6064820152608490fd5b1561158157565b60405162461bcd60e51b815260206004820152601760248201527f4f7267616e697a6174696f6e206e6f74206163746976650000000000000000006044820152606490fd5b156115cd57565b60405162461bcd60e51b815260206004820152601b60248201527f4e6f742061207665726966696564206f7267616e697a6174696f6e00000000006044820152606490fd5b1561161957565b60405162461bcd60e51b815260206004820152601560248201527414995c1bdc9d08191bd95cc81b9bdd08195e1a5cdd605a1b6044820152606490fd5b1561165d57565b60405162461bcd60e51b81526020600482015260146024820152735265706f7274206973206e6f742061637469766560601b6044820152606490fd5b156116a057565b60405162461bcd60e51b815260206004820152601e60248201527f4e6f7420617574686f72697a656420666f722074686973207265706f727400006044820152606490fd5b60001981146116f45760010190565b634e487b7160e01b600052601160045260246000fd5b1561171157565b60405162461bcd60e51b8152602060048201526013602482015272496e76616c69642061636365737320636f646560681b6044820152606490fd5b1561175357565b60405162461bcd60e51b815260206004820152601960248201527f4f7267616e697a6174696f6e206e6f74207665726966696564000000000000006044820152606490fd5b67ffffffffffffffff81116110cf5760051b60200190565b906117ba82611798565b6117c76040519182611312565b82815280926117d8601f1991611798565b0190602036910137565b80518210156117f65760209160051b010190565b634e487b7160e01b600052603260045260246000fd5b9061186e91602060018060a01b0391827f9e7b61f58c47dc699ac88507c4f5bb9f121c03808c5676a8078fe583e4649701541660405180968196829463196d0b9b60e01b845260048401523360248401526080604484015260848301906114e3565b60046064830152600096879103925af1928315611940578293611908575b507f9e7b61f58c47dc699ac88507c4f5bb9f121c03808c5676a8078fe583e4649700541690813b1561190557604051630f8e573b60e21b8152600481018490523360248201529181908390604490829084905af19081156118f957506118f0575090565b611396906112fe565b604051903d90823e3d90fd5b80fd5b9092506020813d602011611938575b8161192460209383611312565b810103126119345751913861188c565b5080fd5b3d9150611917565b6040513d84823e3d90fd5b7f9e7b61f58c47dc699ac88507c4f5bb9f121c03808c5676a8078fe583e4649700546001600160a01b031691823b1561010e57604051635ca4b5b160e11b815260048101929092526001600160a01b03166024820152906000908290604490829084905af180156119c6576119bd5750565b611480906112fe565b6040513d6000823e3d90fdfea26469706673582212202423625dd7183ee1ed294b384579e789aab7a1532b0a532039dabf08de70fa9c64736f6c63430008180033",
  "linkReferences": {},
  "deployedLinkReferences": {}
}