{
  "_format": "hh-sol-artifact-1",
  "contractName": "EncryptedVault",
  "sourceName": "contracts/EncryptedVault.sol",
  "abi": [
    {
      "anonymous": false,
      "inputs": [
        {
          "indexed": true,
          "internalType": "address",
          "name": "owner",
          "type": "address"
        },
        {
          "indexed": true,
          "internalType": "uint256",
          "name": "noteId",
          "type": "uint256"
        },
        {
          "indexed": false,
          "internalType": "bool",
          "name": "archived",
          "type": "bool"
        }
      ],
      "name": "NoteArchived",
      "type": "event"
    },
    {
      "anonymous": false,
      "inputs": [
        {
          "indexed": true,
          "internalType": "address",
          "name": "owner",
          "type": "address"
        },
        {
          "indexed": true,
          "internalType": "uint256",
          "name": "noteId",
          "type": "uint256"
        },
        {
          "indexed": false,
          "internalType": "string",
          "name": "title",
          "type": "string"
        },
        {
          "indexed": false,
          "internalType": "string",
          "name": "category",
          "type": "string"
        }
      ],
      "name": "NoteCreated",
      "type": "event"
    },
    {
      "anonymous": false,
      "inputs": [
        {
          "indexed": true,
          "internalType": "address",
          "name": "owner",
          "type": "address"
        },
        {
          "indexed": true,
          "internalType": "uint256",
          "name": "noteId",
          "type": "uint256"
        }
      ],
      "name": "NoteDeleted",
      "type": "event"
    },
    {
      "anonymous": false,
      "inputs": [
        {
          "indexed": true,
          "internalType": "address",
          "name": "owner",
          "type": "address"
        },
        {
          "indexed": true,
          "internalType": "uint256",
          "name": "noteId",
          "type": "uint256"
        },
        {
          "indexed": false,
          "internalType": "bool",
          "name": "favorited",
          "type": "bool"
        }
      ],
      "name": "NoteFavorited",
      "type": "event"
    },
    {
      "anonymous": false,
      "inputs": [
        {
          "indexed": true,
          "internalType": "address",
          "name": "owner",
          "type": "address"
        },
        {
          "indexed": true,
          "internalType": "uint256",
          "name": "noteId",
          "type": "uint256"
        },
        {
          "indexed": true,
          "internalType": "address",
          "name": "sharedWith",
          "type": "address"
        }
      ],
      "name": "NoteShared",
      "type": "event"
    },
    {
      "anonymous": false,
      "inputs": [
        {
          "indexed": true,
          "internalType": "address",
          "name": "owner",
          "type": "address"
        },
        {
          "indexed": true,
          "internalType": "uint256",
          "name": "noteId",
          "type": "uint256"
        },
        {
          "indexed": false,
          "internalType": "string",
          "name": "title",
          "type": "string"
        }
      ],
      "name": "NoteUpdated",
      "type": "event"
    },
    {
      "inputs": [],
      "name": "MAX_CHUNKS_PER_NOTE",
      "outputs": [
        {
          "internalType": "uint256",
          "name": "",
          "type": "uint256"
        }
      ],
      "stateMutability": "view",
      "type": "function"
    },
    {
      "inputs": [],
      "name": "MAX_NOTES_PER_USER",
      "outputs": [
        {
          "internalType": "uint256",
          "name": "",
          "type": "uint256"
        }
      ],
      "stateMutability": "view",
      "type": "function"
    },
    {
      "inputs": [
        {
          "internalType": "externalEuint32[]",
          "name": "encryptedChunks",
          "type": "bytes32[]"
        },
        {
          "internalType": "bytes",
          "name": "inputProof",
          "type": "bytes"
        },
        {
          "internalType": "string",
          "name": "title",
          "type": "string"
        },
        {
          "internalType": "string",
          "name": "category",
          "type": "string"
        },
        {
          "internalType": "string[]",
          "name": "tags",
          "type": "string[]"
        },
        {
          "internalType": "string",
          "name": "color",
          "type": "string"
        }
      ],
      "name": "createNote",
      "outputs": [
        {
          "internalType": "uint256",
          "name": "noteId",
          "type": "uint256"
        }
      ],
      "stateMutability": "nonpayable",
      "type": "function"
    },
    {
      "inputs": [
        {
          "internalType": "uint256",
          "name": "noteId",
          "type": "uint256"
        }
      ],
      "name": "deleteNote",
      "outputs": [],
      "stateMutability": "nonpayable",
      "type": "function"
    },
    {
      "inputs": [],
      "name": "getMyNotes",
      "outputs": [
        {
          "components": [
            {
              "internalType": "uint256",
              "name": "id",
              "type": "uint256"
            },
            {
              "internalType": "string",
              "name": "title",
              "type": "string"
            },
            {
              "internalType": "string",
              "name": "category",
              "type": "string"
            },
            {
              "internalType": "string[]",
              "name": "tags",
              "type": "string[]"
            },
            {
              "internalType": "uint256",
              "name": "createdAt",
              "type": "uint256"
            },
            {
              "internalType": "uint256",
              "name": "updatedAt",
              "type": "uint256"
            },
            {
              "internalType": "uint8",
              "name": "chunkCount",
              "type": "uint8"
            },
            {
              "internalType": "bool",
              "name": "isArchived",
              "type": "bool"
            },
            {
              "internalType": "bool",
              "name": "isFavorite",
              "type": "bool"
            },
            {
              "internalType": "string",
              "name": "color",
              "type": "string"
            },
            {
              "internalType": "address",
              "name": "owner",
              "type": "address"
            }
          ],
          "internalType": "struct EncryptedVault.NoteMetadata[]",
          "name": "",
          "type": "tuple[]"
        }
      ],
      "stateMutability": "view",
      "type": "function"
    },
    {
      "inputs": [],
      "name": "getMyStats",
      "outputs": [
        {
          "components": [
            {
              "internalType": "uint256",
              "name": "totalNotes",
              "type": "uint256"
            },
            {
              "internalType": "uint256",
              "name": "activeNotes",
              "type": "uint256"
            },
            {
              "internalType": "uint256",
              "name": "archivedNotes",
              "type": "uint256"
            },
            {
              "internalType": "uint256",
              "name": "favoriteNotes",
              "type": "uint256"
            },
            {
              "internalType": "uint256",
              "name": "totalStorage",
              "type": "uint256"
            }
          ],
          "internalType": "struct EncryptedVault.UserStats",
          "name": "",
          "type": "tuple"
        }
      ],
      "stateMutability": "view",
      "type": "function"
    },
    {
      "inputs": [
        {
          "internalType": "uint256",
          "name": "noteId",
          "type": "uint256"
        }
      ],
      "name": "getNoteContent",
      "outputs": [
        {
          "internalType": "bytes32[]",
          "name": "handles",
          "type": "bytes32[]"
        },
        {
          "components": [
            {
              "internalType": "uint256",
              "name": "id",
              "type": "uint256"
            },
            {
              "internalType": "string",
              "name": "title",
              "type": "string"
            },
            {
              "internalType": "string",
              "name": "category",
              "type": "string"
            },
            {
              "internalType": "string[]",
              "name": "tags",
              "type": "string[]"
            },
            {
              "internalType": "uint256",
              "name": "createdAt",
              "type": "uint256"
            },
            {
              "internalType": "uint256",
              "name": "updatedAt",
              "type": "uint256"
            },
            {
              "internalType": "uint8",
              "name": "chunkCount",
              "type": "uint8"
            },
            {
              "internalType": "bool",
              "name": "isArchived",
              "type": "bool"
            },
            {
              "internalType": "bool",
              "name": "isFavorite",
              "type": "bool"
            },
            {
              "internalType": "string",
              "name": "color",
              "type": "string"
            },
            {
              "internalType": "address",
              "name": "owner",
              "type": "address"
            }
          ],
          "internalType": "struct EncryptedVault.NoteMetadata",
          "name": "metadata",
          "type": "tuple"
        }
      ],
      "stateMutability": "view",
      "type": "function"
    },
    {
      "inputs": [
        {
          "internalType": "string",
          "name": "category",
          "type": "string"
        }
      ],
      "name": "getNotesByCategory",
      "outputs": [
        {
          "internalType": "uint256[]",
          "name": "",
          "type": "uint256[]"
        }
      ],
      "stateMutability": "view",
      "type": "function"
    },
    {
      "inputs": [
        {
          "internalType": "string",
          "name": "tag",
          "type": "string"
        }
      ],
      "name": "getNotesByTag",
      "outputs": [
        {
          "internalType": "uint256[]",
          "name": "",
          "type": "uint256[]"
        }
      ],
      "stateMutability": "view",
      "type": "function"
    },
    {
      "inputs": [],
      "name": "getNotesCount",
      "outputs": [
        {
          "internalType": "uint256",
          "name": "",
          "type": "uint256"
        }
      ],
      "stateMutability": "view",
      "type": "function"
    },
    {
      "inputs": [
        {
          "internalType": "address",
          "name": "owner",
          "type": "address"
        },
        {
          "internalType": "uint256",
          "name": "noteId",
          "type": "uint256"
        }
      ],
      "name": "getSharedNoteContent",
      "outputs": [
        {
          "internalType": "bytes32[]",
          "name": "handles",
          "type": "bytes32[]"
        },
        {
          "components": [
            {
              "internalType": "uint256",
              "name": "id",
              "type": "uint256"
            },
            {
              "internalType": "string",
              "name": "title",
              "type": "string"
            },
            {
              "internalType": "string",
              "name": "category",
              "type": "string"
            },
            {
              "internalType": "string[]",
              "name": "tags",
              "type": "string[]"
            },
            {
              "internalType": "uint256",
              "name": "createdAt",
              "type": "uint256"
            },
            {
              "internalType": "uint256",
              "name": "updatedAt",
              "type": "uint256"
            },
            {
              "internalType": "uint8",
              "name": "chunkCount",
              "type": "uint8"
            },
            {
              "internalType": "bool",
              "name": "isArchived",
              "type": "bool"
            },
            {
              "internalType": "bool",
              "name": "isFavorite",
              "type": "bool"
            },
            {
              "internalType": "string",
              "name": "color",
              "type": "string"
            },
            {
              "internalType": "address",
              "name": "owner",
              "type": "address"
            }
          ],
          "internalType": "struct EncryptedVault.NoteMetadata",
          "name": "metadata",
          "type": "tuple"
        }
      ],
      "stateMutability": "view",
      "type": "function"
    },
    {
      "inputs": [],
      "name": "getSharedNotes",
      "outputs": [
        {
          "components": [
            {
              "internalType": "uint256",
              "name": "id",
              "type": "uint256"
            },
            {
              "internalType": "string",
              "name": "title",
              "type": "string"
            },
            {
              "internalType": "string",
              "name": "category",
              "type": "string"
            },
            {
              "internalType": "string[]",
              "name": "tags",
              "type": "string[]"
            },
            {
              "internalType": "uint256",
              "name": "createdAt",
              "type": "uint256"
            },
            {
              "internalType": "uint256",
              "name": "updatedAt",
              "type": "uint256"
            },
            {
              "internalType": "uint8",
              "name": "chunkCount",
              "type": "uint8"
            },
            {
              "internalType": "bool",
              "name": "isArchived",
              "type": "bool"
            },
            {
              "internalType": "bool",
              "name": "isFavorite",
              "type": "bool"
            },
            {
              "internalType": "string",
              "name": "color",
              "type": "string"
            },
            {
              "internalType": "address",
              "name": "owner",
              "type": "address"
            }
          ],
          "internalType": "struct EncryptedVault.NoteMetadata[]",
          "name": "",
          "type": "tuple[]"
        }
      ],
      "stateMutability": "view",
      "type": "function"
    },
    {
      "inputs": [],
      "name": "protocolId",
      "outputs": [
        {
          "internalType": "uint256",
          "name": "",
          "type": "uint256"
        }
      ],
      "stateMutability": "pure",
      "type": "function"
    },
    {
      "inputs": [
        {
          "internalType": "uint256",
          "name": "noteId",
          "type": "uint256"
        },
        {
          "internalType": "bool",
          "name": "archived",
          "type": "bool"
        }
      ],
      "name": "setArchived",
      "outputs": [],
      "stateMutability": "nonpayable",
      "type": "function"
    },
    {
      "inputs": [
        {
          "internalType": "uint256",
          "name": "noteId",
          "type": "uint256"
        },
        {
          "internalType": "bool",
          "name": "favorite",
          "type": "bool"
        }
      ],
      "name": "setFavorite",
      "outputs": [],
      "stateMutability": "nonpayable",
      "type": "function"
    },
    {
      "inputs": [
        {
          "internalType": "uint256",
          "name": "noteId",
          "type": "uint256"
        },
        {
          "internalType": "address",
          "name": "recipient",
          "type": "address"
        }
      ],
      "name": "shareNote",
      "outputs": [],
      "stateMutability": "nonpayable",
      "type": "function"
    },
    {
      "inputs": [
        {
          "internalType": "uint256",
          "name": "noteId",
          "type": "uint256"
        },
        {
          "internalType": "externalEuint32[]",
          "name": "encryptedChunks",
          "type": "bytes32[]"
        },
        {
          "internalType": "bytes",
          "name": "inputProof",
          "type": "bytes"
        },
        {
          "internalType": "string",
          "name": "title",
          "type": "string"
        },
        {
          "internalType": "string",
          "name": "category",
          "type": "string"
        },
        {
          "internalType": "string[]",
          "name": "tags",
          "type": "string[]"
        },
        {
          "internalType": "string",
          "name": "color",
          "type": "string"
        }
      ],
      "name": "updateNote",
      "outputs": [],
      "stateMutability": "nonpayable",
      "type": "function"
    },
    {
      "inputs": [
        {
          "internalType": "address",
          "name": "",
          "type": "address"
        }
      ],
      "name": "userStats",
      "outputs": [
        {
          "internalType": "uint256",
          "name": "totalNotes",
          "type": "uint256"
        },
        {
          "internalType": "uint256",
          "name": "activeNotes",
          "type": "uint256"
        },
        {
          "internalType": "uint256",
          "name": "archivedNotes",
          "type": "uint256"
        },
        {
          "internalType": "uint256",
          "name": "favoriteNotes",
          "type": "uint256"
        },
        {
          "internalType": "uint256",
          "name": "totalStorage",
          "type": "uint256"
        }
      ],
      "stateMutability": "view",
      "type": "function"
    }
  ],
  "bytecode": "0x6080604052346200015b57600060606200001862000160565b82815282602082015282604082015201526200003362000160565b606073687820221192c5b662b25367f70076a37bc79b6c9182815273848b0066793bcc60346da1f49049357399b8d59580602083015273a02cda4ca3a71d7c46997716f4283aa851c2881291826040820152731364cbbf2cdf5032c47d8226a6f6fbd2afcdacac938491015260018060a01b0319937f9e7b61f58c47dc699ac88507c4f5bb9f121c03808c5676a8078fe583e464970090858254161790557f9e7b61f58c47dc699ac88507c4f5bb9f121c03808c5676a8078fe583e464970190848254161790557f9e7b61f58c47dc699ac88507c4f5bb9f121c03808c5676a8078fe583e464970290838254161790557f9e7b61f58c47dc699ac88507c4f5bb9f121c03808c5676a8078fe583e4649703918254161790556040516129e69081620001978239f35b600080fd5b60405190608082016001600160401b038111838210176200018057604052565b634e487b7160e01b600052604160045260246000fdfe608080604052600436101561001357600080fd5b60e0600035811c918263070daf4b14611f3d5750816319e319f314611f215781632dfcbcbc14611dcb5781633cc9320414611bc65781634c286cf914611a535781637a52723e146119a85781637abd8ef3146119155781637c5cda3b146110ad5781638596982d1461108357816386f17bb714610f105781638a65d87414610eaa57816392cbc631146107655781639c02ce45146106c65781639eb0204d14610594578163c47177f41461046c578163ca7e6fbb1461020f57508063cae2cbe5146101095763da1f12ab146100e757600080fd5b346101045760003660031901126101045760206040516127118152f35b600080fd5b346101045761011736612201565b33600052600060205261013060406000205483106122e1565b336000526000602052610147826040600020612323565b506001810154909190610164906001600160a01b03161515612355565b6008820191825492821515938460ff8260101c1615150361018157005b62ff00008560101b169062ff000019161790556007429101556000146101ed5733600052600160205260036040600020016101bc8154612745565b90555b6040519081527f0eddb162238d6c604fca55fb9befc94c7b817387dae5c47b3ddecd1f578796fc60203392a3005b336000526001602052600360406000200161020881546127dd565b90556101bf565b34610104576040366003190112610104576102286120ee565b60243561023361228b565b506001600160a01b039182169081156104375781600052600060205261025f60406000205482106122e1565b816000526000602052610276816040600020612323565b509060019361028c816001850154161515612355565b600091336000526004602052604060002090600092878354945b8581106103ed575b505050505050156103a857600881015460ff8116946102cc866123a7565b946002840160005b888110610384575050509160ff6009926103659483549860068501546007860154906040519b6103038d612220565b8c526103116003880161243f565b60208d01526103226004880161243f565b60408d0152610333600588016124e4565b60608d015260808c015260a08b015260c08a0152828260081c1615159089015260101c1615156101008701520161243f565b6101208401526101408301526103806040519283928361209b565b0390f35b806103908492846123d9565b90549060031b1c6103a1828b6123f1565b52016102d4565b60405162461bcd60e51b815260206004820152601860248201527f4e6f7465206e6f7420736861726564207769746820796f7500000000000000006044820152606490fd5b88836103f98388612539565b5054161480610421575b61040f570188906102a6565b509450505050508580808087816102ae565b50838261042e8388612539565b50015414610403565b60405162461bcd60e51b815260206004820152600d60248201526c24b73b30b634b21037bbb732b960991b6044820152606490fd5b34610104576020806003193601126101045760043590336000526000815261049a60406000205483106122e1565b33600052600081526104b0826040600020612323565b50600881019160ff835416903360005260ff60019485938484526104dd6004604060002001918254612798565b9055805460081c821661057457336000528383528360406000200161050281546127dd565b90555b5460101c16610554575b505061051d600282016127a5565b0180546001600160a01b0319169055337fab9e4514a74f5b1933f08ac8f9833934a73b0bff8a2707cb83ad0aeabe63d224600080a3005b3360005252600360406000200161056b81546127dd565b9055818461050f565b33600052838352600260406000200161058d81546127dd565b9055610505565b34610104576105a236612201565b336000526020600081526105bc60406000205484106122e1565b33600052600081526105d2836040600020612323565b506001808201549192916105f0906001600160a01b03161515612355565b6008830193845493811515958660ff8760081c1615150361060d57005b7fd6379eed3415bf20f8b95eb5076f5889eaa272a8b5d44eb7976e56cec7a88cfc9561ff008860081b169061ff00191617905560074291015560001461068d57336000528082528060406000200161066581546127dd565b9055336000528152600260406000200161067f8154612745565b90555b6040519283523392a3005b33600052808252806040600020016106a58154612745565b905533600052815260026040600020016106bf81546127dd565b9055610682565b3461010457602080600319360112610104576004356001600160401b038111610104576106fa61070e913690600401612168565b3360005260036020526040600020916125a5565b906040519081602084549182815201936000526020600020916000905b82821061074e57610380856107428189038261226a565b60405191829182612195565b83548652948501946001938401939091019061072b565b3461010457366003190112610104576024356001600160401b038111610104576107939036906004016121d1565b6044356001600160401b038111610104576107b2903690600401612168565b916064356001600160401b038111610104576107d2903690600401612168565b9390946084356001600160401b038111610104576107f4903690600401612168565b60a4356001600160401b038111610104576108139036906004016121d1565b9190926001600160401b0360c43511610104576108353660c435600401612168565b959096336000526000602052610853604060002054600435106122e1565b61085e8915156125be565b61086b60808a11156125f7565b6108768b1515612634565b33600052600060205261088f6004356040600020612323565b509960ff60088c0154163360005260016020526108b56004604060002001918254612798565b905533600052600160205260046040600020016108d38b825461276a565b90556108e160028c016127a5565b8a60005b8b808210610e5f575050505050506001600160401b038911610b505761090e6003890154612405565b601f8111610e2a575b50600089601f8111600114610dbb578061094792600091610db0575b508160011b916000199060031b1c19161790565b60038901555b6001600160401b038211610b50576109686004890154612405565b601f8111610d7b575b50600090601f8311600114610d0a576109a3929160009183610cff575b50508160011b916000199060031b1c19161790565b60048701555b600160401b8111610b50576005860154816005880155808210610c87575b5081600587016000526020600020906000935b838510610b6657505050505060098401916001600160401b038211610b5057610a038354612405565b601f8111610b13575b50600090601f8311600114610aa7579180610a429260ff969594600092610a9c5750508160011b916000199060031b1c19161790565b90555b1660ff196008830154161760088201556007429101557fb0100bbca45c234e4f5c80dec82419c3ad0df20bdcee2651b78097dce9238f8d6040516020815280610a976004359533956020840191612777565b0390a3005b01359050898061098e565b601f198316918460005260206000209260005b818110610afb575091600193918560ff9897969410610ae1575b505050811b019055610a45565b0135600019600384901b60f8161c19169055888080610ad4565b91936020600181928787013581550195019201610aba565b610b4090846000526020600020601f850160051c81019160208610610b46575b601f0160051c01906126c7565b87610a0c565b9091508190610b33565b634e487b7160e01b600052604160045260246000fd5b610b7081836126de565b906001600160401b038211610b5057610b898554612405565b601f8111610c55575b50600090601f8311600114610be55792610bcb83600195946020948796600092610bda5750508160011b916000199060031b1c19161790565b86555b019301940193916109da565b01359050388061098e565b8560005260206000209160005b601f1985168110610c3d575083602093600196938796938794601f19811610610c23575b505050811b018655610bce565b0135600019600384901b60f8161c19169055388080610c16565b90926020600181928686013581550194019101610bf2565b610c8190866000526020600020601f850160051c81019160208610610b4657601f0160051c01906126c7565b8d610b92565b600587016000526020600020908282015b8183018110610ca85750506109c7565b80610cb560019254612405565b80610cc2575b5001610c98565b601f81118314610cd85750600081555b8c610cbb565b600090828252610cf6601f60208420920160051c82018583016126c7565b81835555610cd2565b013590508b8061098e565b600489939293016000526020600020906000935b601f1984168510610d63576001945083601f19811610610d49575b505050811b0160048701556109a9565b0135600019600384901b60f8161c191690558a8080610d39565b81810135835560209485019460019093019201610d1e565b610daa9060048a016000526020600020601f850160051c81019160208610610b4657601f0160051c01906126c7565b8a610971565b90508c01358d610933565b506003890160005260206000209060005b8c601f198d168210610e125750508a601f19811610610df8575b5050600189811b01600389015561094d565b8b013560001960038c901b60f8161c191690558a80610de6565b60018394602093948493013581550193019101610dcc565b610e599060038a016000526020600020601f8c0160051c81019160208d10610b4657601f0160051c01906126c7565b8a610917565b6001926002610e87610e7585610ea2958b612671565b35610e81368a8a612681565b906127ea565b91610e923384612929565b610e9c3084612929565b01612710565b018b906108e5565b34610104576020366003190112610104576001600160a01b03610ecb6120ee565b16600052600160205260a06040600020805490600181015490600281015460046003830154920154926040519485526020850152604084015260608301526080820152f35b34610104576000366003190112610104573360005260206000602052604060002090815490610f3e82612555565b9260005b838110610f5757604051806103808782612104565b610f618183612323565b5054610f6d8284612323565b50610f788385612323565b50610f838486612323565b5084610f8f8188612323565b5060060154610f9e8289612323565b506007015490610fae838a612323565b509360ff8080968c60089889809301541697610fc991612323565b500154871c1695610fda8b8d612323565b50015460101c1695610fec8a8c612323565b509760405199610ffb8b612220565b8a526003016110099061243f565b8c8a01526004016110199061243f565b604089015260050161102a906124e4565b6060880152608087015260a086015260c085015215158984015215156101008301526009016110589061243f565b6101208201523361014082015261106f82876123f1565b5261107a81866123f1565b50600101610f42565b34610104576000366003190112610104573360005260006020526020604060002054604051908152f35b346101045760c0366003190112610104576004356001600160401b038111610104576110dd9036906004016121d1565b6024356001600160401b038111610104576110fc903690600401612168565b926044356001600160401b0381116101045761111c903690600401612168565b6064929192356001600160401b0381116101045761113e903690600401612168565b9390916084356001600160401b038111610104576111609036906004016121d1565b60a4969196356001600160401b03811161010457611182903690600401612168565b96909a6111908b15156125be565b61119d60808c11156125f7565b3360005260016020526103e860406000205410156118dc576111c0851515612634565b6111c98b612390565b996111d76040519b8c61226a565b8b8b526111e38c612390565b601f19013660208d01378b60005b8c82821061189557505050505050336000526000602052604060002095865496600160401b881015610b50578761122d91600182018155612323565b508781556001810180546001600160a01b031916331790559a6001600160401b038511610b50578b6112626003820154612405565b601f8111611860575b5050600085601f81116001146117f3578061129b926000916117e857508160011b916000199060031b1c19161790565b60038d01555b6001600160401b038411610b50578b6112bd6004820154612405565b601f81116117b3575b5050600084601f811160011461174657806112f69260009161173b57508160011b916000199060031b1c19161790565b60048d01555b600160401b8311610b505760058c018054908490558084106116c3575b508860058d0160005260206000206000915b8583106115ad575050504260068d01554260078d015560088c0160ff8c1662ffffff198254161790556001600160401b038211610b50578b6113706009820154612405565b601f8111611578575b5050600090601f8311600114611507576113ab9291600091836114fc5750508160011b916000199060031b1c19161790565b60098b01555b60005b88518110156113de57806113d88c60026113d06001958e6123f1565b519101612710565b016113b4565b508833600052600160205260406000206113f88154612745565b905533600052600160205260016040600020016114158154612745565b9055336000526001602052611433600460406000200191825461276a565b9055816114db575b60005b8181106114a25760208780887f32cad9e0a352a677b438968e8388b83bb6fa01c2c7701c5bb544566149d3e55089896114978a611488604051948594604086526040860191612777565b908382038a8501523396612777565b0390a3604051908152f35b6001903360005260036020526114d5886114d060406000206114ca8d8660051b8101906126de565b906125a5565b612710565b0161143e565b3360005260026020526114f7866114d0604060002085896125a5565b61143b565b013590508d8061098e565b60098d939293016000526020600020906000935b601f1984168510611560576001945083601f19811610611546575b505050811b0160098b01556113b1565b0135600019600384901b60f8161c191690558c8080611536565b8181013583556020948501946001909301920161151b565b60096115a692016000526020600020601f850160051c81019160208610610b4657601f0160051c01906126c7565b8b8d611379565b6115b7818d6126de565b906001600160401b038211610b50576115d08454612405565b601f8111611691575b50600090601f8311600114611621579261161283600195946020948796600092610bda5750508160011b916000199060031b1c19161790565b85555b0192019201919061132b565b8460005260206000209160005b601f1985168110611679575083602093600196938796938794601f1981161061165f575b505050811b018555611615565b0135600019600384901b60f8161c19169055388080611652565b9092602060018192868601358155019401910161162e565b6116bd90856000526020600020601f850160051c81019160208610610b4657601f0160051c01906126c7565b386115d9565b60058d016000526020600020908482015b81830181106116e4575050611319565b806116f160019254612405565b806116fe575b50016116d4565b601f811183146117145750600081555b386116f7565b600090828252611732601f60208420920160051c82018583016126c7565b8183555561170e565b90508901358f610933565b5060048d0160005260206000209060005b601f198716811061179b575085601f19811610611781575b5050600184811b0160048d01556112fc565b880135600019600387901b60f8161c191690558c8061176f565b9091602060018192858d013581550193019101611757565b60046117e192016000526020600020601f870160051c81019160208810610b4657601f0160051c01906126c7565b8b8d6112c6565b90508801358f610933565b5060038d0160005260206000209060005b601f1988168110611848575086601f1981161061182e575b5050600185811b0160038d01556112a1565b870135600019600388901b60f8161c191690558c8061181c565b9091602060018192858c013581550193019101611804565b600361188e92016000526020600020601f880160051c81019160208910610b4657601f0160051c01906126c7565b8b8d61126b565b6118af826118a9610e75826001978b612671565b926123f1565b526118c58d6118bf8333926123f1565b51612929565b6118d48d6118bf8330926123f1565b018c906111f1565b60405162461bcd60e51b815260206004820152601160248201527013585e081b9bdd195cc81c995858da1959607a1b6044820152606490fd5b3461010457602080600319360112610104576004356001600160401b0381116101045761194961195d913690600401612168565b3360005260026020526040600020916125a5565b906040519081602084549182815201936000526020600020916000905b82821061199157610380856107428189038261226a565b83548652948501946001938401939091019061197a565b3461010457600036600319011261010457600060806040516119c98161223c565b828152826020820152826040820152826060820152015233600052600160205260a060406000206040516119fc8161223c565b81549182825260018101546020830190815260028201549060408401918252608060046003850154946060870195865201549401938452604051948552516020850152516040840152516060830152516080820152f35b34610104576000366003190112610104573360005260206004602052604060002091825491611a8183612555565b9360005b848110611a9a57604051806103808882612104565b8083611aa860019385612539565b50838060a01b038091541660005260008252846040600020611ad8611acd8684612539565b508701548792612323565b5085848383015416611af1575b50505050505001611a85565b611b399584600994611b0684611b9998612539565b500154966006850154600786015460089182880154958694611b2b60ff998a98612539565b5054169b6040519d8e612220565b8d52611b4760038a0161243f565b908d0152611b576004890161243f565b60408d0152611b68600589016124e4565b60608d015260808c015260a08b015282821660c08b01521c1615158c88015260101c1615156101008601520161243f565b610120830152610140820152611baf82896123f1565b52611bba81886123f1565b50838884818085611ae5565b34610104576040366003190112610104576001600160a01b036024803582811692600435929190848203610104573360005260209160008352611c0f60406000205486106122e1565b8515611d9357338614611d4f573360005260008352611c32856040600020612323565b50600191611c47846001840154161515612355565b600091600201835b611d1d575b50505050846000526004825260406000209160405190604082018281106001600160401b03821117611d0857604052338252810192858452805490600160401b821015611d085790611cab91600182018155612539565b949094611cf457505183546001600160a01b03191691161782555160019190910155337e298d691bf1c314c9f34a31359fda2694f3021dde996528bc7e65b5f4fcc727600080a4005b634e487b7160e01b60005260006004526000fd5b85634e487b7160e01b60005260416004526000fd5b8054831015611d4a578383611d4384611d378497866123d9565b90549060031b1c612929565b0192611c4f565b611c54565b60405162461bcd60e51b815260048101849052601a818601527f43616e6e6f74207368617265207769746820796f757273656c660000000000006044820152606490fd5b60405162461bcd60e51b81526004810184905260118186015270125b9d985b1a59081c9958da5c1a595b9d607a1b6044820152606490fd5b3461010457602036600319011261010457611e17600435611dea61228b565b50336000526000602052611e0460406000205482106122e1565b3360005260006020526040600020612323565b50600181810154909190611e35906001600160a01b03161515612355565b600881015460ff811693611e48856123a7565b936002840160005b878110611efd575050509160ff600992611ee19483549760068501546007860154906040519a611e7f8c612220565b8b52611e8d6003880161243f565b60208c0152611e9e6004880161243f565b60408c0152611eaf600588016124e4565b60608c015260808b015260a08a015260c0890152828260081c1615159088015260101c1615156101008601520161243f565b610120830152336101408301526103806040519283928361209b565b80611f098492846123d9565b90549060031b1c611f1a828a6123f1565b5201611e50565b3461010457600036600319011261010457602060405160808152f35b3461010457600036600319011261010457806103e860209252f35b919082519283825260005b848110611f84575050826000602080949584010152601f8019910116010190565b602081830181015184830182015201611f63565b9061016082518252611fcd611fbb60209283860151908085870152850190611f58565b60408501518482036040860152611f58565b9060608401519083830360608501528151908184528084019381808460051b8301019401946000915b84831061206d57505050505061205591506080840151608084015260a084015160a084015260ff60c08501511660c084015260e0840151151560e084015261010080850151151590840152610120808501519084830390850152611f58565b610140928301516001600160a01b0316919092015290565b9091929394848061208a600193601f198682030187528a51611f58565b980193019301919594939290611ff6565b9092916040820191604081528451809352606081019260208096019060005b8181106120da575050506120d79394506020818403910152611f98565b90565b8251865294870194918701916001016120ba565b600435906001600160a01b038216820361010457565b6020808201906020835283518092526040830192602060408460051b8301019501936000915b84831061213a5750505050505090565b9091929394958480612158600193603f198682030187528a51611f98565b980193019301919493929061212a565b9181601f84011215610104578235916001600160401b038311610104576020838186019501011161010457565b602090602060408183019282815285518094520193019160005b8281106121bd575050505090565b8351855293810193928101926001016121af565b9181601f84011215610104578235916001600160401b038311610104576020808501948460051b01011161010457565b6040906003190112610104576004359060243580151581036101045790565b61016081019081106001600160401b03821117610b5057604052565b60a081019081106001600160401b03821117610b5057604052565b6001600160401b038111610b5057604052565b90601f801991011681019081106001600160401b03821117610b5057604052565b6040519061229882612220565b8161014060009182815260606020820152606060408201526060808201528260808201528260a08201528260c08201528260e08201528261010082015260606101208201520152565b156122e857565b60405162461bcd60e51b8152602060048201526013602482015272139bdd1948191bd95cc81b9bdd08195e1a5cdd606a1b6044820152606490fd5b805482101561233f57600052600a602060002091020190600090565b634e487b7160e01b600052603260045260246000fd5b1561235c57565b60405162461bcd60e51b815260206004820152600c60248201526b139bdd194819195b195d195960a21b6044820152606490fd5b6001600160401b038111610b505760051b60200190565b906123b182612390565b6123be604051918261226a565b82815280926123cf601f1991612390565b0190602036910137565b805482101561233f5760005260206000200190600090565b805182101561233f5760209160051b010190565b90600182811c92168015612435575b602083101461241f57565b634e487b7160e01b600052602260045260246000fd5b91607f1691612414565b9060405191826000825461245281612405565b908184526020946001916001811690816000146124c25750600114612483575b5050506124819250038361226a565b565b600090815285812095935091905b8183106124aa5750506124819350820101388080612472565b85548884018501529485019487945091830191612491565b9250505061248194925060ff191682840152151560051b820101388080612472565b9081546124f081612390565b926124fe604051948561226a565b818452600090815260208082208186015b84841061251d575050505050565b600183819261252b8561243f565b81520192019301929061250f565b805482101561233f5760005260206000209060011b0190600090565b9061255f82612390565b61256c604051918261226a565b828152809261257d601f1991612390565b019060005b82811061258e57505050565b60209061259961228b565b82828501015201612582565b6020919283604051948593843782019081520301902090565b156125c557565b60405162461bcd60e51b815260206004820152600a602482015269456d707479206e6f746560b01b6044820152606490fd5b156125fe57565b60405162461bcd60e51b815260206004820152600e60248201526d4e6f746520746f6f206c6172676560901b6044820152606490fd5b1561263b57565b60405162461bcd60e51b815260206004820152600e60248201526d151a5d1b19481c995c5d5a5c995960921b6044820152606490fd5b919081101561233f5760051b0190565b9291926001600160401b038211610b5057604051916126aa601f8201601f19166020018461226a565b829481845281830111610104578281602093846000960137010152565b8181106126d2575050565b600081556001016126c7565b903590601e198136030182121561010457018035906001600160401b0382116101045760200191813603831361010457565b8054600160401b811015610b505761272d916001820181556123d9565b819291549060031b91821b91600019901b1916179055565b60001981146127545760010190565b634e487b7160e01b600052601160045260246000fd5b9190820180921161275457565b908060209392818452848401376000828201840152601f01601f1916010190565b9190820391821161275457565b80549060009060008155826127b957505050565b6000526020600020918201915b8281106127d257505050565b8181556001016127c6565b8015612754576000190190565b9061284c91602060018060a01b0391827f9e7b61f58c47dc699ac88507c4f5bb9f121c03808c5676a8078fe583e4649701541660405180968196829463196d0b9b60e01b84526004840152336024840152608060448401526084830190611f58565b60046064830152600096879103925af192831561291e5782936128e6575b507f9e7b61f58c47dc699ac88507c4f5bb9f121c03808c5676a8078fe583e4649700541690813b156128e357604051630f8e573b60e21b8152600481018490523360248201529181908390604490829084905af19081156128d757506128ce575090565b6120d790612257565b604051903d90823e3d90fd5b80fd5b9092506020813d602011612916575b816129026020938361226a565b810103126129125751913861286a565b5080fd5b3d91506128f5565b6040513d84823e3d90fd5b7f9e7b61f58c47dc699ac88507c4f5bb9f121c03808c5676a8078fe583e4649700546001600160a01b031691823b1561010457604051635ca4b5b160e11b815260048101929092526001600160a01b03166024820152906000908290604490829084905af180156129a45761299b5750565b61248190612257565b6040513d6000823e3d90fdfea2646970667358221220166e477cee56ccfe0c2e87aac237db5460798d586dc3b8d1d61465276b143f6164736f6c63430008180033",
  "linkReferences": {},
  "deployedLinkReferences": {}
}